:100000000C9434000C943E000C943E000C943E0082
:100010000C943E000C943E000C943E000C943E0068
:100020000C943E000C943E000C943E000C943E0058
:100030000C943E000C943E000C943E000C943E0048
:100040000C943E000C943E000C943E000C943E0038
:100050000C943E000C943E000C943E000C943E0028
:100060000C943E000C943E0011241FBECFEFD8E04C
:10007000DEBFCDBF0E946A000C94C9000C94000042
:100080002D9A2FEF81EE94E0215080409040E1F7CF
:1000900000C000002D982FEF81EE94E021508040A9
:1000A0009040E1F700C0000008952D9A2FEF85EAF7
:1000B0009EE0215080409040E1F700C000002D9864
:1000C0002FEF81EE94E0215080409040E1F700C096
:1000D00000000895259A0E9455000E9455002FEFB8
:1000E00087E893E1215080409040E1F700C0000094
:1000F0000E9440000E9455002FEF87E893E12150B5
:1001000080409040E1F700C000000E9440000E9443
:1001100055000E9440002FEF87E893E12150804076
:100120009040E1F700C000000E9455002FEF87E8E3
:1001300093E1215080409040E1F700C000000E9410
:1001400040000E9440002FEF87E893E1215080405B
:100150009040E1F700C000000E9455000E9440005E
:100160002FEF87E893E1215080409040E1F700C0F5
:1001700000000E9440000E9440000E9440002FEFBB
:1001800083ED90E3215080409040E1F700C00000F3
:06019000A2CFF894FFCF9E
:00000001FF
